{"abi":[{"type":"constructor","inputs":[{"name":"_oracle","type":"address","internalType":"address"},{"name":"_taskEscrow","type":"address","internalType":"address"}],"stateMutability":"nonpayable"},{"type":"function","name":"getVerdict","inputs":[{"name":"taskId","type":"bytes32","internalType":"bytes32"}],"outputs":[{"name":"","type":"tuple","internalType":"struct CVSOracle.Verdict","components":[{"name":"taskId","type":"bytes32","internalType":"bytes32"},{"name":"accepted","type":"bool","internalType":"bool"},{"name":"score","type":"uint8","internalType":"uint8"},{"name":"evidenceHash","type":"bytes32","internalType":"bytes32"},{"name":"timestamp","type":"uint64","internalType":"uint64"}]}],"stateMutability":"view"},{"type":"function","name":"oracle","inputs":[],"outputs":[{"name":"","type":"address","internalType":"address"}],"stateMutability":"view"},{"type":"function","name":"owner","inputs":[],"outputs":[{"name":"","type":"address","internalType":"address"}],"stateMutability":"view"},{"type":"function","name":"renounceOwnership","inputs":[],"outputs":[],"stateMutability":"nonpayable"},{"type":"function","name":"setOracle","inputs":[{"name":"_oracle","type":"address","internalType":"address"}],"outputs":[],"stateMutability":"nonpayable"},{"type":"function","name":"setTaskEscrow","inputs":[{"name":"_taskEscrow","type":"address","internalType":"address"}],"outputs":[],"stateMutability":"nonpayable"},{"type":"function","name":"submitVerdict","inputs":[{"name":"taskId","type":"bytes32","internalType":"bytes32"},{"name":"accepted","type":"bool","internalType":"bool"},{"name":"score","type":"uint8","internalType":"uint8"},{"name":"evidenceHash","type":"bytes32","internalType":"bytes32"}],"outputs":[],"stateMutability":"nonpayable"},{"type":"function","name":"taskEscrow","inputs":[],"outputs":[{"name":"","type":"address","internalType":"address"}],"stateMutability":"view"},{"type":"function","name":"transferOwnership","inputs":[{"name":"newOwner","type":"address","internalType":"address"}],"outputs":[],"stateMutability":"nonpayable"},{"type":"function","name":"verdicts","inputs":[{"name":"","type":"bytes32","internalType":"bytes32"}],"outputs":[{"name":"taskId","type":"bytes32","internalType":"bytes32"},{"name":"accepted","type":"bool","internalType":"bool"},{"name":"score","type":"uint8","internalType":"uint8"},{"name":"evidenceHash","type":"bytes32","internalType":"bytes32"},{"name":"timestamp","type":"uint64","internalType":"uint64"}],"stateMutability":"view"},{"type":"event","name":"OwnershipTransferred","inputs":[{"name":"previousOwner","type":"address","indexed":true,"internalType":"address"},{"name":"newOwner","type":"address","indexed":true,"internalType":"address"}],"anonymous":false},{"type":"event","name":"VerdictSubmitted","inputs":[{"name":"taskId","type":"bytes32","indexed":true,"internalType":"bytes32"},{"name":"oracle","type":"address","indexed":true,"internalType":"address"},{"name":"accepted","type":"bool","indexed":false,"internalType":"bool"},{"name":"score","type":"uint8","indexed":false,"internalType":"uint8"},{"name":"evidenceHash","type":"bytes32","indexed":false,"internalType":"bytes32"}],"anonymous":false},{"type":"error","name":"OwnableInvalidOwner","inputs":[{"name":"owner","type":"address","internalType":"address"}]},{"type":"error","name":"OwnableUnauthorizedAccount","inputs":[{"name":"account","type":"address","internalType":"address"}]}],"bytecode":{"object":"0x608060405234801561000f575f5ffd5b5060405161103638038061103683398181016040528101906100319190610258565b335f73ffffffffffffffffffffffffffffffffffffffff168173ffffffffffffffffffffffffffffffffffffffff16036100a2575f6040517f1e4fbdf700000000000000000000000000000000000000000000000000000000815260040161009991906102a5565b60405180910390fd5b6100b18161013960201b60201c565b508160015f6101000a81548173ffffffffffffffffffffffffffffffffffffffff021916908373ffffffffffffffffffffffffffffffffffffffff1602179055508060025f6101000a81548173ffffffffffffffffffffffffffffffffffffffff021916908373ffffffffffffffffffffffffffffffffffffffff16021790555050506102be565b5f5f5f9054906101000a900473ffffffffffffffffffffffffffffffffffffffff169050815f5f6101000a81548173ffffffffffffffffffffffffffffffffffffffff021916908373ffffffffffffffffffffffffffffffffffffffff1602179055508173ffffffffffffffffffffffffffffffffffffffff168173ffffffffffffffffffffffffffffffffffffffff167f8be0079c531659141344cd1fd0a4f28419497f9722a3daafe3b4186f6b6457e060405160405180910390a35050565b5f5ffd5b5f73ffffffffffffffffffffffffffffffffffffffff82169050919050565b5f610227826101fe565b9050919050565b6102378161021d565b8114610241575f5ffd5b50565b5f815190506102528161022e565b92915050565b5f5f6040838503121561026e5761026d6101fa565b5b5f61027b85828601610244565b925050602061028c85828601610244565b9150509250929050565b61029f8161021d565b82525050565b5f6020820190506102b85f830184610296565b92915050565b610d6b806102cb5f395ff3fe608060405234801561000f575f5ffd5b506004361061009c575f3560e01c80638184717b116100645780638184717b146101365780638da5cb5b14610166578063d3867b3414610184578063da875013146101a0578063f2fde38b146101bc5761009c565b806327c4ffe1146100a057806346ed6017146100be578063715018a6146100f25780637adbf973146100fc5780637dc0d1d014610118575b5f5ffd5b6100a86101d8565b6040516100b591906108f1565b60405180910390f35b6100d860048036038101906100d39190610941565b6101fd565b6040516100e99594939291906109d2565b60405180910390f35b6100fa61025b565b005b61011660048036038101906101119190610a4d565b61026e565b005b6101206102b9565b60405161012d91906108f1565b60405180910390f35b610150600480360381019061014b9190610941565b6102de565b60405161015d9190610b1a565b60405180910390f35b61016e610384565b60405161017b91906108f1565b60405180910390f35b61019e60048036038101906101999190610b87565b6103ab565b005b6101ba60048036038101906101b59190610a4d565b61065b565b005b6101d660048036038101906101d19190610a4d565b6106a6565b005b60025f9054906101000a900473ffffffffffffffffffffffffffffffffffffffff1681565b6003602052805f5260405f205f91509050805f015490806001015f9054906101000a900460ff16908060010160019054906101000a900460ff1690806002015490806003015f9054906101000a900467ffffffffffffffff16905085565b61026361072a565b61026c5f6107b1565b565b61027661072a565b8060015f6101000a81548173ffffffffffffffffffffffffffffffffffffffff021916908373ffffffffffffffffffffffffffffffffffffffff16021790555050565b60015f9054906101000a900473ffffffffffffffffffffffffffffffffffffffff1681565b6102e6610879565b60035f8381526020019081526020015f206040518060a00160405290815f8201548152602001600182015f9054906101000a900460ff161515151581526020016001820160019054906101000a900460ff1660ff1660ff16815260200160028201548152602001600382015f9054906101000a900467ffffffffffffffff1667ffffffffffffffff1667ffffffffffffffff16815250509050919050565b5f5f5f9054906101000a900473ffffffffffffffffffffffffffffffffffffffff16905090565b60015f9054906101000a900473ffffffffffffffffffffffffffffffffffffffff1673ffffffffffffffffffffffffffffffffffffffff163373ffffffffffffffffffffffffffffffffffffffff161461043a576040517f08c379a000000000000000000000000000000000000000000000000000000000815260040161043190610c45565b60405180910390fd5b5f60035f8681526020019081526020015f206003015f9054906101000a900467ffffffffffffffff1667ffffffffffffffff16146104ad576040517f08c379a00000000000000000000000000000000000000000000000000000000081526004016104a490610cad565b60405180910390fd5b6040518060a0016040528085815260200184151581526020018360ff1681526020018281526020014267ffffffffffffffff1681525060035f8681526020019081526020015f205f820151815f01556020820151816001015f6101000a81548160ff02191690831515021790555060408201518160010160016101000a81548160ff021916908360ff160217905550606082015181600201556080820151816003015f6101000a81548167ffffffffffffffff021916908367ffffffffffffffff16021790555090505060025f9054906101000a900473ffffffffffffffffffffffffffffffffffffffff1673ffffffffffffffffffffffffffffffffffffffff1663ff995bbd8585856040518463ffffffff1660e01b81526004016105d593929190610ccb565b5f604051808303815f87803b1580156105ec575f5ffd5b505af11580156105fe573d5f5f3e3d5ffd5b505050503373ffffffffffffffffffffffffffffffffffffffff16847f834370ab27b6e0a509229acee6dc6bab71e80a61f1382355c3e31b41104a142185858560405161064d93929190610d00565b60405180910390a350505050565b61066361072a565b8060025f6101000a81548173ffffffffffffffffffffffffffffffffffffffff021916908373ffffffffffffffffffffffffffffffffffffffff16021790555050565b6106ae61072a565b5f73ffffffffffffffffffffffffffffffffffffffff168173ffffffffffffffffffffffffffffffffffffffff160361071e575f6040517f1e4fbdf700000000000000000000000000000000000000000000000000000000815260040161071591906108f1565b60405180910390fd5b610727816107b1565b50565b610732610872565b73ffffffffffffffffffffffffffffffffffffffff16610750610384565b73ffffffffffffffffffffffffffffffffffffffff16146107af57610773610872565b6040517f118cdaa70000000000000000000000000000000000000000000000000000000081526004016107a691906108f1565b60405180910390fd5b565b5f5f5f9054906101000a900473ffffffffffffffffffffffffffffffffffffffff169050815f5f6101000a81548173ffffffffffffffffffffffffffffffffffffffff021916908373ffffffffffffffffffffffffffffffffffffffff1602179055508173ffffffffffffffffffffffffffffffffffffffff168173ffffffffffffffffffffffffffffffffffffffff167f8be0079c531659141344cd1fd0a4f28419497f9722a3daafe3b4186f6b6457e060405160405180910390a35050565b5f33905090565b6040518060a001604052805f81526020015f151581526020015f60ff1681526020015f81526020015f67ffffffffffffffff1681525090565b5f73ffffffffffffffffffffffffffffffffffffffff82169050919050565b5f6108db826108b2565b9050919050565b6108eb816108d1565b82525050565b5f6020820190506109045f8301846108e2565b92915050565b5f5ffd5b5f819050919050565b6109208161090e565b811461092a575f5ffd5b50565b5f8135905061093b81610917565b92915050565b5f602082840312156109565761095561090a565b5b5f6109638482850161092d565b91505092915050565b6109758161090e565b82525050565b5f8115159050919050565b61098f8161097b565b82525050565b5f60ff82169050919050565b6109aa81610995565b82525050565b5f67ffffffffffffffff82169050919050565b6109cc816109b0565b82525050565b5f60a0820190506109e55f83018861096c565b6109f26020830187610986565b6109ff60408301866109a1565b610a0c606083018561096c565b610a1960808301846109c3565b9695505050505050565b610a2c816108d1565b8114610a36575f5ffd5b50565b5f81359050610a4781610a23565b92915050565b5f60208284031215610a6257610a6161090a565b5b5f610a6f84828501610a39565b91505092915050565b610a818161090e565b82525050565b610a908161097b565b82525050565b610a9f81610995565b82525050565b610aae816109b0565b82525050565b60a082015f820151610ac85f850182610a78565b506020820151610adb6020850182610a87565b506040820151610aee6040850182610a96565b506060820151610b016060850182610a78565b506080820151610b146080850182610aa5565b50505050565b5f60a082019050610b2d5f830184610ab4565b92915050565b610b3c8161097b565b8114610b46575f5ffd5b50565b5f81359050610b5781610b33565b92915050565b610b6681610995565b8114610b70575f5ffd5b50565b5f81359050610b8181610b5d565b92915050565b5f5f5f5f60808587031215610b9f57610b9e61090a565b5b5f610bac8782880161092d565b9450506020610bbd87828801610b49565b9350506040610bce87828801610b73565b9250506060610bdf8782880161092d565b91505092959194509250565b5f82825260208201905092915050565b7f4f6e6c79206f7261636c650000000000000000000000000000000000000000005f82015250565b5f610c2f600b83610beb565b9150610c3a82610bfb565b602082019050919050565b5f6020820190508181035f830152610c5c81610c23565b9050919050565b7f416c7265616479207665726469637400000000000000000000000000000000005f82015250565b5f610c97600f83610beb565b9150610ca282610c63565b602082019050919050565b5f6020820190508181035f830152610cc481610c8b565b9050919050565b5f606082019050610cde5f83018661096c565b610ceb6020830185610986565b610cf860408301846109a1565b949350505050565b5f606082019050610d135f830186610986565b610d2060208301856109a1565b610d2d604083018461096c565b94935050505056fea264697066735822122077403ffffb2d7bbbd2b9ceaa4ee99b14e864e6fff1e71007a491398ceac7d40a64736f6c63430008210033","linkReferences":{}},"methodIdentifiers":{"getVerdict(bytes32)":"8184717b","oracle()":"7dc0d1d0","owner()":"8da5cb5b","renounceOwnership()":"715018a6","setOracle(address)":"7adbf973","setTaskEscrow(address)":"da875013","submitVerdict(bytes32,bool,uint8,bytes32)":"d3867b34","taskEscrow()":"27c4ffe1","transferOwnership(address)":"f2fde38b","verdicts(bytes32)":"46ed6017"},"id":31}