{"abi":[{"type":"constructor","inputs":[{"name":"_usdc","type":"address","internalType":"address"},{"name":"_treasury","type":"address","internalType":"address"},{"name":"_feeBps","type":"uint16","internalType":"uint16"}],"stateMutability":"nonpayable"},{"type":"function","name":"cancelTask","inputs":[{"name":"taskId","type":"bytes32","internalType":"bytes32"}],"outputs":[],"stateMutability":"nonpayable"},{"type":"function","name":"claimTask","inputs":[{"name":"taskId","type":"bytes32","internalType":"bytes32"}],"outputs":[],"stateMutability":"nonpayable"},{"type":"function","name":"createTask","inputs":[{"name":"amount","type":"uint96","internalType":"uint96"},{"name":"expiry","type":"uint64","internalType":"uint64"},{"name":"contentHash","type":"bytes32","internalType":"bytes32"},{"name":"maxRetries","type":"uint8","internalType":"uint8"}],"outputs":[{"name":"taskId","type":"bytes32","internalType":"bytes32"}],"stateMutability":"nonpayable"},{"type":"function","name":"defaultFeeBps","inputs":[],"outputs":[{"name":"","type":"uint16","internalType":"uint16"}],"stateMutability":"view"},{"type":"function","name":"fundTask","inputs":[{"name":"taskId","type":"bytes32","internalType":"bytes32"}],"outputs":[],"stateMutability":"nonpayable"},{"type":"function","name":"getTask","inputs":[{"name":"taskId","type":"bytes32","internalType":"bytes32"}],"outputs":[{"name":"","type":"tuple","internalType":"struct Task","components":[{"name":"boss","type":"address","internalType":"address"},{"name":"expiry","type":"uint64","internalType":"uint64"},{"name":"status","type":"uint8","internalType":"enum TaskStatus"},{"name":"maxRetries","type":"uint8","internalType":"uint8"},{"name":"retryCount","type":"uint8","internalType":"uint8"},{"name":"worker","type":"address","internalType":"address"},{"name":"amount","type":"uint96","internalType":"uint96"},{"name":"contentHash","type":"bytes32","internalType":"bytes32"}]}],"stateMutability":"view"},{"type":"function","name":"markExpired","inputs":[{"name":"taskId","type":"bytes32","internalType":"bytes32"}],"outputs":[],"stateMutability":"nonpayable"},{"type":"function","name":"onVerdictReceived","inputs":[{"name":"taskId","type":"bytes32","internalType":"bytes32"},{"name":"accepted","type":"bool","internalType":"bool"},{"name":"score","type":"uint8","internalType":"uint8"}],"outputs":[],"stateMutability":"nonpayable"},{"type":"function","name":"oracle","inputs":[],"outputs":[{"name":"","type":"address","internalType":"address"}],"stateMutability":"view"},{"type":"function","name":"owner","inputs":[],"outputs":[{"name":"","type":"address","internalType":"address"}],"stateMutability":"view"},{"type":"function","name":"pendingWithdrawals","inputs":[{"name":"","type":"address","internalType":"address"}],"outputs":[{"name":"","type":"uint256","internalType":"uint256"}],"stateMutability":"view"},{"type":"function","name":"refund","inputs":[{"name":"taskId","type":"bytes32","internalType":"bytes32"}],"outputs":[],"stateMutability":"nonpayable"},{"type":"function","name":"renounceOwnership","inputs":[],"outputs":[],"stateMutability":"nonpayable"},{"type":"function","name":"setDefaultFeeBps","inputs":[{"name":"_feeBps","type":"uint16","internalType":"uint16"}],"outputs":[],"stateMutability":"nonpayable"},{"type":"function","name":"setOracle","inputs":[{"name":"_oracle","type":"address","internalType":"address"}],"outputs":[],"stateMutability":"nonpayable"},{"type":"function","name":"setTreasury","inputs":[{"name":"_treasury","type":"address","internalType":"address"}],"outputs":[],"stateMutability":"nonpayable"},{"type":"function","name":"settle","inputs":[{"name":"taskId","type":"bytes32","internalType":"bytes32"}],"outputs":[],"stateMutability":"nonpayable"},{"type":"function","name":"submitResult","inputs":[{"name":"taskId","type":"bytes32","internalType":"bytes32"},{"name":"resultHash","type":"bytes32","internalType":"bytes32"}],"outputs":[],"stateMutability":"nonpayable"},{"type":"function","name":"tasks","inputs":[{"name":"","type":"bytes32","internalType":"bytes32"}],"outputs":[{"name":"boss","type":"address","internalType":"address"},{"name":"expiry","type":"uint64","internalType":"uint64"},{"name":"status","type":"uint8","internalType":"enum TaskStatus"},{"name":"maxRetries","type":"uint8","internalType":"uint8"},{"name":"retryCount","type":"uint8","internalType":"uint8"},{"name":"worker","type":"address","internalType":"address"},{"name":"amount","type":"uint96","internalType":"uint96"},{"name":"contentHash","type":"bytes32","internalType":"bytes32"}],"stateMutability":"view"},{"type":"function","name":"transferOwnership","inputs":[{"name":"newOwner","type":"address","internalType":"address"}],"outputs":[],"stateMutability":"nonpayable"},{"type":"function","name":"treasury","inputs":[],"outputs":[{"name":"","type":"address","internalType":"address"}],"stateMutability":"view"},{"type":"function","name":"usdc","inputs":[],"outputs":[{"name":"","type":"address","internalType":"contract IERC20"}],"stateMutability":"view"},{"type":"function","name":"withdraw","inputs":[],"outputs":[],"stateMutability":"nonpayable"},{"type":"event","name":"OwnershipTransferred","inputs":[{"name":"previousOwner","type":"address","indexed":true,"internalType":"address"},{"name":"newOwner","type":"address","indexed":true,"internalType":"address"}],"anonymous":false},{"type":"event","name":"TaskCancelled","inputs":[{"name":"taskId","type":"bytes32","indexed":true,"internalType":"bytes32"}],"anonymous":false},{"type":"event","name":"TaskClaimed","inputs":[{"name":"taskId","type":"bytes32","indexed":true,"internalType":"bytes32"},{"name":"worker","type":"address","indexed":true,"internalType":"address"}],"anonymous":false},{"type":"event","name":"TaskCreated","inputs":[{"name":"taskId","type":"bytes32","indexed":true,"internalType":"bytes32"},{"name":"boss","type":"address","indexed":true,"internalType":"address"},{"name":"amount","type":"uint96","indexed":false,"internalType":"uint96"}],"anonymous":false},{"type":"event","name":"TaskExpired","inputs":[{"name":"taskId","type":"bytes32","indexed":true,"internalType":"bytes32"}],"anonymous":false},{"type":"event","name":"TaskFunded","inputs":[{"name":"taskId","type":"bytes32","indexed":true,"internalType":"bytes32"},{"name":"amount","type":"uint96","indexed":false,"internalType":"uint96"}],"anonymous":false},{"type":"event","name":"TaskPaused","inputs":[{"name":"taskId","type":"bytes32","indexed":true,"internalType":"bytes32"}],"anonymous":false},{"type":"event","name":"TaskRefunded","inputs":[{"name":"taskId","type":"bytes32","indexed":true,"internalType":"bytes32"},{"name":"amount","type":"uint256","indexed":false,"internalType":"uint256"}],"anonymous":false},{"type":"event","name":"TaskRejected","inputs":[{"name":"taskId","type":"bytes32","indexed":true,"internalType":"bytes32"}],"anonymous":false},{"type":"event","name":"TaskSettled","inputs":[{"name":"taskId","type":"bytes32","indexed":true,"internalType":"bytes32"},{"name":"worker","type":"address","indexed":true,"internalType":"address"},{"name":"payout","type":"uint256","indexed":false,"internalType":"uint256"},{"name":"fee","type":"uint256","indexed":false,"internalType":"uint256"}],"anonymous":false},{"type":"event","name":"TaskSubmitted","inputs":[{"name":"taskId","type":"bytes32","indexed":true,"internalType":"bytes32"},{"name":"resultHash","type":"bytes32","indexed":false,"internalType":"bytes32"}],"anonymous":false},{"type":"event","name":"VerdictReceived","inputs":[{"name":"taskId","type":"bytes32","indexed":true,"internalType":"bytes32"},{"name":"accepted","type":"bool","indexed":false,"internalType":"bool"},{"name":"score","type":"uint8","indexed":false,"internalType":"uint8"}],"anonymous":false},{"type":"error","name":"OwnableInvalidOwner","inputs":[{"name":"owner","type":"address","internalType":"address"}]},{"type":"error","name":"OwnableUnauthorizedAccount","inputs":[{"name":"account","type":"address","internalType":"address"}]},{"type":"error","name":"ReentrancyGuardReentrantCall","inputs":[]},{"type":"error","name":"SafeERC20FailedOperation","inputs":[{"name":"token","type":"address","internalType":"address"}]}],"bytecode":{"object":"0x60a06040526101f4600260146101000a81548161ffff021916908361ffff16021790555034801561002e575f5ffd5b5060405161399138038061399183398181016040528101906100509190610316565b33600161006f61006461018e60201b60201c565b6101b760201b60201c565b5f01819055505f73ffffffffffffffffffffffffffffffffffffffff168173ffffffffffffffffffffffffffffffffffffffff16036100e5575f6040517f1e4fbdf70000000000000000000000000000000000000000000000000000000081526004016100dc9190610375565b60405180910390fd5b6100f4816101c060201b60201c565b508273ffffffffffffffffffffffffffffffffffffffff1660808173ffffffffffffffffffffffffffffffffffffffff16815250508160015f6101000a81548173ffffffffffffffffffffffffffffffffffffffff021916908373ffffffffffffffffffffffffffffffffffffffff16021790555080600260146101000a81548161ffff021916908361ffff16021790555050505061038e565b5f7f9b779b17422d0df92223018b32b4d1fa46e071723d6817e2486d003becc55f005f1b905090565b5f819050919050565b5f5f5f9054906101000a900473ffffffffffffffffffffffffffffffffffffffff169050815f5f6101000a81548173ffffffffffffffffffffffffffffffffffffffff021916908373ffffffffffffffffffffffffffffffffffffffff1602179055508173ffffffffffffffffffffffffffffffffffffffff168173ffffffffffffffffffffffffffffffffffffffff167f8be0079c531659141344cd1fd0a4f28419497f9722a3daafe3b4186f6b6457e060405160405180910390a35050565b5f5ffd5b5f73ffffffffffffffffffffffffffffffffffffffff82169050919050565b5f6102ae82610285565b9050919050565b6102be816102a4565b81146102c8575f5ffd5b50565b5f815190506102d9816102b5565b92915050565b5f61ffff82169050919050565b6102f5816102df565b81146102ff575f5ffd5b50565b5f81519050610310816102ec565b92915050565b5f5f5f6060848603121561032d5761032c610281565b5b5f61033a868287016102cb565b935050602061034b868287016102cb565b925050604061035c86828701610302565b9150509250925092565b61036f816102a4565b82525050565b5f6020820190506103885f830184610366565b92915050565b6080516135dd6103b45f395f8181610725015281816108ca015261091b01526135dd5ff3fe608060405234801561000f575f5ffd5b506004361061014b575f3560e01c80637dc0d1d0116100c1578063e579f5001161007a578063e579f50014610339578063ee8ca3b514610370578063f0f442601461038c578063f2fde38b146103a8578063f3f43703146103c4578063ff995bbd146103f45761014b565b80637dc0d1d01461028b57806387e0aeb2146102a95780638da5cb5b146102c5578063987757dd146102e3578063bcae25a4146102ff578063d91e92411461031d5761014b565b8063587e49ef11610113578063587e49ef146101df57806361d027b31461020f57806370f8c6f91461022d578063715018a6146102495780637249fbb6146102535780637adbf9731461026f5761014b565b806315a290351461014f578063318d328c1461017f5780633ccfd60b1461019b5780633e413bee146101a55780634488b652146101c3575b5f5ffd5b61016960048036038101906101649190612556565b610410565b6040516101769190612745565b60405180910390f35b61019960048036038101906101949190612556565b6105d0565b005b6101a36107f6565b005b6101ad610919565b6040516101ba91906127ba565b60405180910390f35b6101dd60048036038101906101d8919061280a565b61093d565b005b6101f960048036038101906101f491906128b3565b610965565b6040516102069190612926565b60405180910390f35b610217610cf9565b604051610224919061294e565b60405180910390f35b61024760048036038101906102429190612556565b610d1e565b005b610251610ed3565b005b61026d60048036038101906102689190612556565b610ee6565b005b61028960048036038101906102849190612991565b611210565b005b61029361125b565b6040516102a0919061294e565b60405180910390f35b6102c360048036038101906102be9190612556565b611280565b005b6102cd611498565b6040516102da919061294e565b60405180910390f35b6102fd60048036038101906102f89190612556565b6114bf565b005b61030761177d565b60405161031491906129cb565b60405180910390f35b610337600480360381019061033291906129e4565b611791565b005b610353600480360381019061034e9190612556565b6119c9565b604051610367989796959493929190612a5e565b60405180910390f35b61038a60048036038101906103859190612556565b611a9a565b005b6103a660048036038101906103a19190612991565b611d62565b005b6103c260048036038101906103bd9190612991565b611dad565b005b6103de60048036038101906103d99190612991565b611e31565b6040516103eb9190612af2565b60405180910390f35b61040e60048036038101906104099190612b40565b611e46565b005b610418612486565b60035f8381526020019081526020015f20604051806101000160405290815f82015f9054906101000a900473ffffffffffffffffffffffffffffffffffffffff1673ffffffffffffffffffffffffffffffffffffffff1673ffffffffffffffffffffffffffffffffffffffff1681526020015f820160149054906101000a900467ffffffffffffffff1667ffffffffffffffff1667ffffffffffffffff1681526020015f8201601c9054906101000a900460ff16600a8111156104de576104dd6125e2565b5b600a8111156104f0576104ef6125e2565b5b81526020015f8201601d9054906101000a900460ff1660ff1660ff1681526020015f8201601e9054906101000a900460ff1660ff1660ff168152602001600182015f9054906101000a900473ffffffffffffffffffffffffffffffffffffffff1673ffffffffffffffffffffffffffffffffffffffff1673ffffffffffffffffffffffffffffffffffffffff1681526020016001820160149054906101000a90046bffffffffffffffffffffffff166bffffffffffffffffffffffff166bffffffffffffffffffffffff1681526020016002820154815250509050919050565b6105d86120f1565b5f60035f8381526020019081526020015f2090503373ffffffffffffffffffffffffffffffffffffffff16815f015f9054906101000a900473ffffffffffffffffffffffffffffffffffffffff1673ffffffffffffffffffffffffffffffffffffffff161461067c576040517f08c379a000000000000000000000000000000000000000000000000000000000815260040161067390612bea565b60405180910390fd5b6001600a8111156106905761068f6125e2565b5b815f01601c9054906101000a900460ff16600a8111156106b3576106b26125e2565b5b146106f3576040517f08c379a00000000000000000000000000000000000000000000000000000000081526004016106ea90612c52565b60405180910390fd5b61076a33308360010160149054906101000a90046bffffffffffffffffffffffff166bffffffffffffffffffffffff167f000000000000000000000000000000000000000000000000000000000000000073ffffffffffffffffffffffffffffffffffffffff16612113909392919063ffffffff16565b6002815f01601c6101000a81548160ff0219169083600a811115610791576107906125e2565b5b0217905550817f3553877840fc0e73092da0864c4eaefbd85cfeb60cc5cf62058d141b4d7c31738260010160149054906101000a90046bffffffffffffffffffffffff166040516107e29190612c70565b60405180910390a2506107f3612168565b50565b6107fe6120f1565b5f60045f3373ffffffffffffffffffffffffffffffffffffffff1673ffffffffffffffffffffffffffffffffffffffff1681526020019081526020015f205490505f8111610881576040517f08c379a000000000000000000000000000000000000000000000000000000000815260040161087890612cd3565b60405180910390fd5b5f60045f3373ffffffffffffffffffffffffffffffffffffffff1673ffffffffffffffffffffffffffffffffffffffff1681526020019081526020015f208190555061090e33827f000000000000000000000000000000000000000000000000000000000000000073ffffffffffffffffffffffffffffffffffffffff166121829092919063ffffffff16565b50610917612168565b565b7f000000000000000000000000000000000000000000000000000000000000000081565b6109456121d5565b80600260146101000a81548161ffff021916908361ffff16021790555050565b5f61096e6120f1565b428467ffffffffffffffff16116109ba576040517f08c379a00000000000000000000000000000000000000000000000000000000081526004016109b190612d3b565b60405180910390fd5b5f856bffffffffffffffffffffffff1611610a0a576040517f08c379a0000000000000000000000000000000000000000000000000000000008152600401610a0190612da3565b60405180910390fd5b334660055f3373ffffffffffffffffffffffffffffffffffffffff1673ffffffffffffffffffffffffffffffffffffffff1681526020019081526020015f205f815480929190610a5990612dee565b91905055604051602001610a6f93929190612e9a565b6040516020818303038152906040528051906020012090506040518061010001604052803373ffffffffffffffffffffffffffffffffffffffff1681526020018567ffffffffffffffff1681526020016001600a811115610ad357610ad26125e2565b5b81526020018360ff1681526020015f60ff1681526020015f73ffffffffffffffffffffffffffffffffffffffff168152602001866bffffffffffffffffffffffff1681526020018481525060035f8381526020019081526020015f205f820151815f015f6101000a81548173ffffffffffffffffffffffffffffffffffffffff021916908373ffffffffffffffffffffffffffffffffffffffff1602179055506020820151815f0160146101000a81548167ffffffffffffffff021916908367ffffffffffffffff1602179055506040820151815f01601c6101000a81548160ff0219169083600a811115610bcb57610bca6125e2565b5b02179055506060820151815f01601d6101000a81548160ff021916908360ff1602179055506080820151815f01601e6101000a81548160ff021916908360ff16021790555060a0820151816001015f6101000a81548173ffffffffffffffffffffffffffffffffffffffff021916908373ffffffffffffffffffffffffffffffffffffffff16021790555060c08201518160010160146101000a8154816bffffffffffffffffffffffff02191690836bffffffffffffffffffffffff16021790555060e082015181600201559050503373ffffffffffffffffffffffffffffffffffffffff16817f9945891539cf226b42ded544de7f391d9f6e0d848aabed8b7f203bdee4f5cffc87604051610ce19190612c70565b60405180910390a3610cf1612168565b949350505050565b60015f9054906101000a900473ffffffffffffffffffffffffffffffffffffffff1681565b610d266120f1565b5f60035f8381526020019081526020015f2090506002600a811115610d4e57610d4d6125e2565b5b815f01601c9054906101000a900460ff16600a811115610d7157610d706125e2565b5b14610db1576040517f08c379a0000000000000000000000000000000000000000000000000000000008152600401610da890612f20565b60405180910390fd5b805f0160149054906101000a900467ffffffffffffffff1667ffffffffffffffff16421115610e15576040517f08c379a0000000000000000000000000000000000000000000000000000000008152600401610e0c90612f88565b60405180910390fd5b33816001015f6101000a81548173ffffffffffffffffffffffffffffffffffffffff021916908373ffffffffffffffffffffffffffffffffffffffff1602179055506003815f01601c6101000a81548160ff0219169083600a811115610e7e57610e7d6125e2565b5b02179055503373ffffffffffffffffffffffffffffffffffffffff16827f0e1f58463da369c5bf09630219fad2558dd2b2ead275c5dc36269b384dc138fe60405160405180910390a350610ed0612168565b50565b610edb6121d5565b610ee45f61225c565b565b610eee6120f1565b5f60035f8381526020019081526020015f209050805f015f9054906101000a900473ffffffffffffffffffffffffffffffffffffffff1673ffffffffffffffffffffffffffffffffffffffff163373ffffffffffffffffffffffffffffffffffffffff1614610f92576040517f08c379a0000000000000000000000000000000000000000000000000000000008152600401610f8990612bea565b60405180910390fd5b6008600a811115610fa657610fa56125e2565b5b815f01601c9054906101000a900460ff16600a811115610fc957610fc86125e2565b5b148061100957506009600a811115610fe457610fe36125e2565b5b815f01601c9054906101000a900460ff16600a811115611007576110066125e2565b5b145b806110475750600a80811115611022576110216125e2565b5b815f01601c9054906101000a900460ff16600a811115611045576110446125e2565b5b145b611086576040517f08c379a000000000000000000000000000000000000000000000000000000000815260040161107d90612ff0565b60405180910390fd5b600a80811115611099576110986125e2565b5b815f01601c9054906101000a900460ff16600a8111156110bc576110bb6125e2565b5b036110fc576040517f08c379a00000000000000000000000000000000000000000000000000000000081526004016110f390613058565b60405180910390fd5b5f8160010160149054906101000a90046bffffffffffffffffffffffff166bffffffffffffffffffffffff169050600a825f01601c6101000a81548160ff0219169083600a811115611151576111506125e2565b5b02179055508060045f845f015f9054906101000a900473ffffffffffffffffffffffffffffffffffffffff1673ffffffffffffffffffffffffffffffffffffffff1673ffffffffffffffffffffffffffffffffffffffff1681526020019081526020015f205f8282546111c49190613076565b92505081905550827f1d484b7a6bc447c931d0601b4ac6eb78a8fc5698acc254f8ecec287c622afeee826040516111fb9190612af2565b60405180910390a2505061120d612168565b50565b6112186121d5565b8060025f6101000a81548173ffffffffffffffffffffffffffffffffffffffff021916908373ffffffffffffffffffffffffffffffffffffffff16021790555050565b60025f9054906101000a900473ffffffffffffffffffffffffffffffffffffffff1681565b6112886120f1565b5f60035f8381526020019081526020015f209050805f0160149054906101000a900467ffffffffffffffff1667ffffffffffffffff1642116112ff576040517f08c379a00000000000000000000000000000000000000000000000000000000081526004016112f6906130f3565b60405180910390fd5b6002600a811115611313576113126125e2565b5b815f01601c9054906101000a900460ff16600a811115611336576113356125e2565b5b148061137657506003600a811115611351576113506125e2565b5b815f01601c9054906101000a900460ff16600a811115611374576113736125e2565b5b145b806113b557506004600a8111156113905761138f6125e2565b5b815f01601c9054906101000a900460ff16600a8111156113b3576113b26125e2565b5b145b806113f457506007600a8111156113cf576113ce6125e2565b5b815f01601c9054906101000a900460ff16600a8111156113f2576113f16125e2565b5b145b611433576040517f08c379a000000000000000000000000000000000000000000000000000000000815260040161142a9061315b565b60405180910390fd5b6008815f01601c6101000a81548160ff0219169083600a81111561145a576114596125e2565b5b0217905550817f15c774656aa697ddfce864b95d07a535daa243899fa45c495ca6cf6a03a0907560405160405180910390a250611495612168565b50565b5f5f5f9054906101000a900473ffffffffffffffffffffffffffffffffffffffff16905090565b6114c76120f1565b5f60035f8381526020019081526020015f2090506005600a8111156114ef576114ee6125e2565b5b815f01601c9054906101000a900460ff16600a811115611512576115116125e2565b5b14611552576040517f08c379a0000000000000000000000000000000000000000000000000000000008152600401611549906131c3565b60405180910390fd5b5f612710600260149054906101000a900461ffff1661ffff168360010160149054906101000a90046bffffffffffffffffffffffff166bffffffffffffffffffffffff166115a091906131e1565b6115aa919061324f565b90505f818360010160149054906101000a90046bffffffffffffffffffffffff166bffffffffffffffffffffffff166115e3919061327f565b90506006835f01601c6101000a81548160ff0219169083600a81111561160c5761160b6125e2565b5b02179055508060045f856001015f9054906101000a900473ffffffffffffffffffffffffffffffffffffffff1673ffffffffffffffffffffffffffffffffffffffff1673ffffffffffffffffffffffffffffffffffffffff1681526020019081526020015f205f8282546116809190613076565b925050819055508160045f60015f9054906101000a900473ffffffffffffffffffffffffffffffffffffffff1673ffffffffffffffffffffffffffffffffffffffff1673ffffffffffffffffffffffffffffffffffffffff1681526020019081526020015f205f8282546116f49190613076565b92505081905550826001015f9054906101000a900473ffffffffffffffffffffffffffffffffffffffff1673ffffffffffffffffffffffffffffffffffffffff16847f28291a99d10e7f79980d84139ee1fabe582d24e5e7ec62953ece66edfc89dde183856040516117679291906132b2565b60405180910390a350505061177a612168565b50565b600260149054906101000a900461ffff1681565b6117996120f1565b5f60035f8481526020019081526020015f2090506003600a8111156117c1576117c06125e2565b5b815f01601c9054906101000a900460ff16600a8111156117e4576117e36125e2565b5b148061182457506007600a8111156117ff576117fe6125e2565b5b815f01601c9054906101000a900460ff16600a811115611822576118216125e2565b5b145b611863576040517f08c379a000000000000000000000000000000000000000000000000000000000815260040161185a90613323565b60405180910390fd5b3373ffffffffffffffffffffffffffffffffffffffff16816001015f9054906101000a900473ffffffffffffffffffffffffffffffffffffffff1673ffffffffffffffffffffffffffffffffffffffff16146118f4576040517f08c379a00000000000000000000000000000000000000000000000000000000081526004016118eb9061338b565b60405180910390fd5b805f0160149054906101000a900467ffffffffffffffff1667ffffffffffffffff16421115611958576040517f08c379a000000000000000000000000000000000000000000000000000000000815260040161194f90612f88565b60405180910390fd5b6004815f01601c6101000a81548160ff0219169083600a81111561197f5761197e6125e2565b5b0217905550827f4072eff033de03685064a70b3f4688374d2fdf0604d43599849e16759c7c0993836040516119b49190612926565b60405180910390a2506119c5612168565b5050565b6003602052805f5260405f205f91509050805f015f9054906101000a900473ffffffffffffffffffffffffffffffffffffffff1690805f0160149054906101000a900467ffffffffffffffff1690805f01601c9054906101000a900460ff1690805f01601d9054906101000a900460ff1690805f01601e9054906101000a900460ff1690806001015f9054906101000a900473ffffffffffffffffffffffffffffffffffffffff16908060010160149054906101000a90046bffffffffffffffffffffffff16908060020154905088565b611aa26120f1565b5f60035f8381526020019081526020015f209050805f015f9054906101000a900473ffffffffffffffffffffffffffffffffffffffff1673ffffffffffffffffffffffffffffffffffffffff163373ffffffffffffffffffffffffffffffffffffffff1614611b46576040517f08c379a0000000000000000000000000000000000000000000000000000000008152600401611b3d90612bea565b60405180910390fd5b6001600a811115611b5a57611b596125e2565b5b815f01601c9054906101000a900460ff16600a811115611b7d57611b7c6125e2565b5b1480611bbd57506002600a811115611b9857611b976125e2565b5b815f01601c9054906101000a900460ff16600a811115611bbb57611bba6125e2565b5b145b611bfc576040517f08c379a0000000000000000000000000000000000000000000000000000000008152600401611bf3906133f3565b60405180910390fd5b5f73ffffffffffffffffffffffffffffffffffffffff16816001015f9054906101000a900473ffffffffffffffffffffffffffffffffffffffff1673ffffffffffffffffffffffffffffffffffffffff1614611c8d576040517f08c379a0000000000000000000000000000000000000000000000000000000008152600401611c849061345b565b60405180910390fd5b6001600a811115611ca157611ca06125e2565b5b815f01601c9054906101000a900460ff16600a811115611cc457611cc36125e2565b5b03611cfd575f8160010160146101000a8154816bffffffffffffffffffffffff02191690836bffffffffffffffffffffffff1602179055505b6009815f01601c6101000a81548160ff0219169083600a811115611d2457611d236125e2565b5b0217905550817fe1e1d79b8f28d3379fc32f617eaf54dd6bd4071074c77e91134770e04a81d62660405160405180910390a250611d5f612168565b50565b611d6a6121d5565b8060015f6101000a81548173ffffffffffffffffffffffffffffffffffffffff021916908373ffffffffffffffffffffffffffffffffffffffff16021790555050565b611db56121d5565b5f73ffffffffffffffffffffffffffffffffffffffff168173ffffffffffffffffffffffffffffffffffffffff1603611e25575f6040517f1e4fbdf7000000000000000000000000000000000000000000000000000000008152600401611e1c919061294e565b60405180910390fd5b611e2e8161225c565b50565b6004602052805f5260405f205f915090505481565b60025f9054906101000a900473ffffffffffffffffffffffffffffffffffffffff1673ffffffffffffffffffffffffffffffffffffffff163373ffffffffffffffffffffffffffffffffffffffff1614611ed5576040517f08c379a0000000000000000000000000000000000000000000000000000000008152600401611ecc906134c3565b60405180910390fd5b5f60035f8581526020019081526020015f2090506004600a811115611efd57611efc6125e2565b5b815f01601c9054906101000a900460ff16600a811115611f2057611f1f6125e2565b5b14611f60576040517f08c379a0000000000000000000000000000000000000000000000000000000008152600401611f579061352b565b60405180910390fd5b8215611f97576005815f01601c6101000a81548160ff0219169083600a811115611f8d57611f8c6125e2565b5b02179055506120b1565b6007815f01601c6101000a81548160ff0219169083600a811115611fbe57611fbd6125e2565b5b0217905550805f01601e81819054906101000a900460ff1680929190611fe390613549565b91906101000a81548160ff021916908360ff16021790555050837f59cc1f53165071c40374c82937224e47154e1abb596afb4ca33fd08bd910b9f860405160405180910390a2805f01601d9054906101000a900460ff1660ff16815f01601e9054906101000a900460ff1660ff16106120b0576008815f01601c6101000a81548160ff0219169083600a81111561207d5761207c6125e2565b5b0217905550837fe11cbf50e3614d3ed4100a65c695df772e6870a2917ba9aa3795bc61d5df3e7d60405160405180910390a25b5b837f01c032c62bcf242b0ceb81fcaf9eb6e68658e324adc9dc7c67edff60146a4a5284846040516120e3929190613580565b60405180910390a250505050565b6120f961231d565b600261210b61210661235e565b612387565b5f0181905550565b612121848484846001612390565b61216257836040517f5274afe7000000000000000000000000000000000000000000000000000000008152600401612159919061294e565b60405180910390fd5b50505050565b600161217a61217561235e565b612387565b5f0181905550565b61218f8383836001612401565b6121d057826040517f5274afe70000000000000000000000000000000000000000000000000000000081526004016121c7919061294e565b60405180910390fd5b505050565b6121dd612463565b73ffffffffffffffffffffffffffffffffffffffff166121fb611498565b73ffffffffffffffffffffffffffffffffffffffff161461225a5761221e612463565b6040517f118cdaa7000000000000000000000000000000000000000000000000000000008152600401612251919061294e565b60405180910390fd5b565b5f5f5f9054906101000a900473ffffffffffffffffffffffffffffffffffffffff169050815f5f6101000a81548173ffffffffffffffffffffffffffffffffffffffff021916908373ffffffffffffffffffffffffffffffffffffffff1602179055508173ffffffffffffffffffffffffffffffffffffffff168173ffffffffffffffffffffffffffffffffffffffff167f8be0079c531659141344cd1fd0a4f28419497f9722a3daafe3b4186f6b6457e060405160405180910390a35050565b61232561246a565b1561235c576040517f3ee5aeb500000000000000000000000000000000000000000000000000000000815260040160405180910390fd5b565b5f7f9b779b17422d0df92223018b32b4d1fa46e071723d6817e2486d003becc55f005f1b905090565b5f819050919050565b5f5f6323b872dd60e01b9050604051815f525f1960601c87166004525f1960601c86166024528460445260205f60645f5f8c5af1925060015f511483166123ee5783831516156123e2573d5f823e3d81fd5b5f883b113d1516831692505b806040525f606052505095945050505050565b5f5f63a9059cbb60e01b9050604051815f525f1960601c86166004528460245260205f60445f5f8b5af1925060015f51148316612455578383151615612449573d5f823e3d81fd5b5f873b113d1516831692505b806040525050949350505050565b5f33905090565b5f600261247d61247861235e565b612387565b5f015414905090565b6040518061010001604052805f73ffffffffffffffffffffffffffffffffffffffff1681526020015f67ffffffffffffffff1681526020015f600a8111156124d1576124d06125e2565b5b81526020015f60ff1681526020015f60ff1681526020015f73ffffffffffffffffffffffffffffffffffffffff1681526020015f6bffffffffffffffffffffffff1681526020015f81525090565b5f5ffd5b5f819050919050565b61253581612523565b811461253f575f5ffd5b50565b5f813590506125508161252c565b92915050565b5f6020828403121561256b5761256a61251f565b5b5f61257884828501612542565b91505092915050565b5f73ffffffffffffffffffffffffffffffffffffffff82169050919050565b5f6125aa82612581565b9050919050565b6125ba816125a0565b82525050565b5f67ffffffffffffffff82169050919050565b6125dc816125c0565b82525050565b7f4e487b71000000000000000000000000000000000000000000000000000000005f52602160045260245ffd5b600b81106126205761261f6125e2565b5b50565b5f8190506126308261260f565b919050565b5f61263f82612623565b9050919050565b61264f81612635565b82525050565b5f60ff82169050919050565b61266a81612655565b82525050565b5f6bffffffffffffffffffffffff82169050919050565b61269081612670565b82525050565b61269f81612523565b82525050565b61010082015f8201516126ba5f8501826125b1565b5060208201516126cd60208501826125d3565b5060408201516126e06040850182612646565b5060608201516126f36060850182612661565b5060808201516127066080850182612661565b5060a082015161271960a08501826125b1565b5060c082015161272c60c0850182612687565b5060e082015161273f60e0850182612696565b50505050565b5f610100820190506127595f8301846126a5565b92915050565b5f819050919050565b5f61278261277d61277884612581565b61275f565b612581565b9050919050565b5f61279382612768565b9050919050565b5f6127a482612789565b9050919050565b6127b48161279a565b82525050565b5f6020820190506127cd5f8301846127ab565b92915050565b5f61ffff82169050919050565b6127e9816127d3565b81146127f3575f5ffd5b50565b5f81359050612804816127e0565b92915050565b5f6020828403121561281f5761281e61251f565b5b5f61282c848285016127f6565b91505092915050565b61283e81612670565b8114612848575f5ffd5b50565b5f8135905061285981612835565b92915050565b612868816125c0565b8114612872575f5ffd5b50565b5f813590506128838161285f565b92915050565b61289281612655565b811461289c575f5ffd5b50565b5f813590506128ad81612889565b92915050565b5f5f5f5f608085870312156128cb576128ca61251f565b5b5f6128d88782880161284b565b94505060206128e987828801612875565b93505060406128fa87828801612542565b925050606061290b8782880161289f565b91505092959194509250565b61292081612523565b82525050565b5f6020820190506129395f830184612917565b92915050565b612948816125a0565b82525050565b5f6020820190506129615f83018461293f565b92915050565b612970816125a0565b811461297a575f5ffd5b50565b5f8135905061298b81612967565b92915050565b5f602082840312156129a6576129a561251f565b5b5f6129b38482850161297d565b91505092915050565b6129c5816127d3565b82525050565b5f6020820190506129de5f8301846129bc565b92915050565b5f5f604083850312156129fa576129f961251f565b5b5f612a0785828601612542565b9250506020612a1885828601612542565b9150509250929050565b612a2b816125c0565b82525050565b612a3a81612635565b82525050565b612a4981612655565b82525050565b612a5881612670565b82525050565b5f61010082019050612a725f83018b61293f565b612a7f602083018a612a22565b612a8c6040830189612a31565b612a996060830188612a40565b612aa66080830187612a40565b612ab360a083018661293f565b612ac060c0830185612a4f565b612acd60e0830184612917565b9998505050505050505050565b5f819050919050565b612aec81612ada565b82525050565b5f602082019050612b055f830184612ae3565b92915050565b5f8115159050919050565b612b1f81612b0b565b8114612b29575f5ffd5b50565b5f81359050612b3a81612b16565b92915050565b5f5f5f60608486031215612b5757612b5661251f565b5b5f612b6486828701612542565b9350506020612b7586828701612b2c565b9250506040612b868682870161289f565b9150509250925092565b5f82825260208201905092915050565b7f4f6e6c7920626f737300000000000000000000000000000000000000000000005f82015250565b5f612bd4600983612b90565b9150612bdf82612ba0565b602082019050919050565b5f6020820190508181035f830152612c0181612bc8565b9050919050565b7f4e6f7420637265617465640000000000000000000000000000000000000000005f82015250565b5f612c3c600b83612b90565b9150612c4782612c08565b602082019050919050565b5f6020820190508181035f830152612c6981612c30565b9050919050565b5f602082019050612c835f830184612a4f565b92915050565b7f4e6f2066756e64730000000000000000000000000000000000000000000000005f82015250565b5f612cbd600883612b90565b9150612cc882612c89565b602082019050919050565b5f6020820190508181035f830152612cea81612cb1565b9050919050565b7f45787069727920696e20706173740000000000000000000000000000000000005f82015250565b5f612d25600e83612b90565b9150612d3082612cf1565b602082019050919050565b5f6020820190508181035f830152612d5281612d19565b9050919050565b7f416d6f756e74207a65726f0000000000000000000000000000000000000000005f82015250565b5f612d8d600b83612b90565b9150612d9882612d59565b602082019050919050565b5f6020820190508181035f830152612dba81612d81565b9050919050565b7f4e487b71000000000000000000000000000000000000000000000000000000005f52601160045260245ffd5b5f612df882612ada565b91507fffffffffffffffffffffffffffffffffffffffffffffffffffffffffffffffff8203612e2a57612e29612dc1565b5b600182019050919050565b5f8160601b9050919050565b5f612e4b82612e35565b9050919050565b5f612e5c82612e41565b9050919050565b612e74612e6f826125a0565b612e52565b82525050565b5f819050919050565b612e94612e8f82612ada565b612e7a565b82525050565b5f612ea58286612e63565b601482019150612eb58285612e83565b602082019150612ec58284612e83565b602082019150819050949350505050565b7f4e6f742066756e646564000000000000000000000000000000000000000000005f82015250565b5f612f0a600a83612b90565b9150612f1582612ed6565b602082019050919050565b5f6020820190508181035f830152612f3781612efe565b9050919050565b7f45787069726564000000000000000000000000000000000000000000000000005f82015250565b5f612f72600783612b90565b9150612f7d82612f3e565b602082019050919050565b5f6020820190508181035f830152612f9f81612f66565b9050919050565b7f4e6f7420726566756e6461626c652073746174650000000000000000000000005f82015250565b5f612fda601483612b90565b9150612fe582612fa6565b602082019050919050565b5f6020820190508181035f83015261300781612fce565b9050919050565b7f416c726561647920726566756e646564000000000000000000000000000000005f82015250565b5f613042601083612b90565b915061304d8261300e565b602082019050919050565b5f6020820190508181035f83015261306f81613036565b9050919050565b5f61308082612ada565b915061308b83612ada565b92508282019050808211156130a3576130a2612dc1565b5b92915050565b7f4e6f7420657870697265640000000000000000000000000000000000000000005f82015250565b5f6130dd600b83612b90565b91506130e8826130a9565b602082019050919050565b5f6020820190508181035f83015261310a816130d1565b9050919050565b7f43616e6e6f7420657870697265000000000000000000000000000000000000005f82015250565b5f613145600d83612b90565b915061315082613111565b602082019050919050565b5f6020820190508181035f83015261317281613139565b9050919050565b7f4e6f7420616363657074656400000000000000000000000000000000000000005f82015250565b5f6131ad600c83612b90565b91506131b882613179565b602082019050919050565b5f6020820190508181035f8301526131da816131a1565b9050919050565b5f6131eb82612ada565b91506131f683612ada565b925082820261320481612ada565b9150828204841483151761321b5761321a612dc1565b5b5092915050565b7f4e487b71000000000000000000000000000000000000000000000000000000005f52601260045260245ffd5b5f61325982612ada565b915061326483612ada565b92508261327457613273613222565b5b828204905092915050565b5f61328982612ada565b915061329483612ada565b92508282039050818111156132ac576132ab612dc1565b5b92915050565b5f6040820190506132c55f830185612ae3565b6132d26020830184612ae3565b9392505050565b7f4e6f7420636c61696d2f72656a000000000000000000000000000000000000005f82015250565b5f61330d600d83612b90565b9150613318826132d9565b602082019050919050565b5f6020820190508181035f83015261333a81613301565b9050919050565b7f4f6e6c7920776f726b65720000000000000000000000000000000000000000005f82015250565b5f613375600b83612b90565b915061338082613341565b602082019050919050565b5f6020820190508181035f8301526133a281613369565b9050919050565b7f43616e6e6f742063616e63656c000000000000000000000000000000000000005f82015250565b5f6133dd600d83612b90565b91506133e8826133a9565b602082019050919050565b5f6020820190508181035f83015261340a816133d1565b9050919050565b7f576f726b657220657869737473000000000000000000000000000000000000005f82015250565b5f613445600d83612b90565b915061345082613411565b602082019050919050565b5f6020820190508181035f83015261347281613439565b9050919050565b7f4f6e6c79206f7261636c650000000000000000000000000000000000000000005f82015250565b5f6134ad600b83612b90565b91506134b882613479565b602082019050919050565b5f6020820190508181035f8301526134da816134a1565b9050919050565b7f4e6f74207375626d6974746564000000000000000000000000000000000000005f82015250565b5f613515600d83612b90565b9150613520826134e1565b602082019050919050565b5f6020820190508181035f83015261354281613509565b9050919050565b5f61355382612655565b915060ff820361356657613565612dc1565b5b600182019050919050565b61357a81612b0b565b82525050565b5f6040820190506135935f830185613571565b6135a06020830184612a40565b939250505056fea2646970667358221220df389f4c2ee4c11409cf1417fc99fe71ad9ed1b6e7dccc3b150736f7e0fad33d64736f6c63430008210033","linkReferences":{}},"methodIdentifiers":{"cancelTask(bytes32)":"ee8ca3b5","claimTask(bytes32)":"70f8c6f9","createTask(uint96,uint64,bytes32,uint8)":"587e49ef","defaultFeeBps()":"bcae25a4","fundTask(bytes32)":"318d328c","getTask(bytes32)":"15a29035","markExpired(bytes32)":"87e0aeb2","onVerdictReceived(bytes32,bool,uint8)":"ff995bbd","oracle()":"7dc0d1d0","owner()":"8da5cb5b","pendingWithdrawals(address)":"f3f43703","refund(bytes32)":"7249fbb6","renounceOwnership()":"715018a6","setDefaultFeeBps(uint16)":"4488b652","setOracle(address)":"7adbf973","setTreasury(address)":"f0f44260","settle(bytes32)":"987757dd","submitResult(bytes32,bytes32)":"d91e9241","tasks(bytes32)":"e579f500","transferOwnership(address)":"f2fde38b","treasury()":"61d027b3","usdc()":"3e413bee","withdraw()":"3ccfd60b"},"id":33}